:020000040800F2
:1000000000000120050300080B030008110300088D
:1000100033030008390300085B03000800000000F8
:100020000000000000000000000000007D03000848
:100030008303000800000000890300088F03000804
:10004000AD030008AD030008AD030008AD030008D0
:10005000AD030008AD030008AD030008AD030008C0
:10006000AD030008AD030008AD030008AD030008B0
:10007000AD030008AD030008AD030008AD030008A0
:10008000AD030008AD030008AD0300080000000048
:10009000000000000000000000000000AD030008A8
:1000A000AD030008AD030008AD030008AD03000870
:1000B000AD030008AD030008AD030008AD03000860
:1000C000AD030008AD030008AD030008AD03000850
:1000D000AD030008AD030008AD03000800000000F8
:1000E000AD030008AD030008AD03000800000000E8
:1000F000000000000000000000000000AD03000848
:1001000000000000AD030008AD030008AD030008C7
:1001100000000000000000000000000000000000DF
:10012000AD030008AD030008AD030008AD030008EF
:10013000AD03000800000000000000000000000007
:10014000000000000000000000000000AD030008F7
:10015000AD030008AD030008AD030008AD030008BF
:10016000AD030008AD03000800000000000000001F
:10017000000000000000000000000000000000007F
:1001800000000000AD0300080000000000000000B7
:10019000AD03000880B596B000AF00F037F94F4BC3
:1001A0007B6524E07B6D1A1D7A651B683B647B6D63
:1001B0001A1D7A651B68FB637B6D1A1D7A651B68C7
:1001C000BB633B6C7B63FB6B3B63BB6BFB623B6B5F
:1001D000BB6207E07A6B131D7B63BB6A191DB962B2
:1001E00012681A60FA6ABB6A9A42F3D800BF7B6D44
:1001F0003B4A9342D6D33B4B3B651AE03B6D1A1DFD
:100200003A651B68BB643B6D1A1D3A651B687B64CD
:10021000BB6C7B627B6C3B627B6AFB6104E0FB69CD
:100220001A1DFA6100221A603A6AFB699A42F6D8EE
:1002300000BF3B6D2C4A9342E0D300F0F5F83A1D25
:1002400007F108031146184600F0CEF8274A284B5C
:10025000D31A9B103B610023FB6007E0244AFB6834
:1002600052F823309847FB680133FB603A69FB681A
:100270009A42F3DC1F4A204BD31A9B103B610023A8
:10028000FB6007E01C4AFB6852F823309847FB6884
:100290000133FB603A69FB689A42F3DC00BFBB683C
:1002A0007A681146184600F06BF9F864134A144B4B
:1002B000D31A9B10BB61BB697B6108E07B69013B82
:1002C0000F4A52F8233098477B69013B7B617B6979
:1002D000002BF3DC00BFF86C00F080F8B4030008DA
:1002E000CC030008CC030008DC030008DC03000892
:1002F000DC030008DC030008DC030008DC03000862
:10030000DC0300082548004700BF80B400AFFEE7CB
:100310001EF0040F0CBFEFF30880EFF30980714665
:100320001F4A104700BF80B483B000AF78603960C7
:10033000FEE780B400AFFEE71EF0040F0CBFEFF342
:100340000880EFF309807146164A104700BF80B459
:1003500083B000AF78603960FEE71EF0040F0CBF79
:10036000EFF30880EFF3098071460F4A104700BF92
:1003700080B483B000AF78603960FEE780B400AF2E
:10038000FEE780B400AFFEE780B400AFFEE780B4C4
:1003900000AF00BFBD4680BC70470000950100085B
:1003A000270300084F0300087103000880B400AF62
:0203B000FEE766
:1003B400040D00080000002028000020040D00089F
:1003C4000000001000000010280000203800002069
:0803D400000000100000001001
:1003DC0080B582B000AF786000F03CF880B483B098
:1003EC0000AF786039607B6801221A603B68034A71
:1003FC001A6000BF0C37BD4680BC7047000000205F
:10040C0080B500AF00F02AF8024B034A9A6000BF97
:10041C0080BD00BF00ED00E00000000880B500AF1B
:10042C0000F028F800BF80BD80B400AFBFF34F8F41
:10043C0000BF064BDB6803F4E0620449044B134332
:10044C00CB60BFF34F8F00BF00BFFDE700ED00E0B6
:10045C000400FA0580B500AFFFF7E6FF80B400AFEB
:10046C00034B4FF000629A6000BFBD4680BC7047E2
:10047C0000ED00E080B487B000AF00233B610023A7
:10048C007B610223FB600023BB6002237B60344B47
:10049C009B6803F00C033B613B69082B11D03B6953
:1004AC00082B44D83B69002B03D03B69042B04D0A8
:1004BC003DE02C4B2C4A1A603DE02A4B2B4A1A602B
:1004CC0039E0274B5B689B0D03F00103BB60244BA9
:1004DC005B6803F03F037B60BB68002B0CD0234AA6
:1004EC007B68B2FBF3F31E4A52689209C2F308020E
:1004FC0002FB03F37B610BE01B4A7B68B2FBF3F35B
:10050C00174A52689209C2F3080202FB03F37B619B
:10051C00134B5B681B0C03F0030301335B00FB60A4
:10052C007A69FB68B2FBF3F30E4A136003E00D4BE0
:10053C000D4A1A6000BF0A4B9B681B0903F00F039E
:10054C000B4AD35C3B61074B1A683B6922FA03F3F5
:10055C00044A136000BF1C37BD4680BC704700BF07
:10056C0000380240080000200024F40000127A0039
:10057C00F40C000880B582B000AF00F02BFA00201C
:10058C0000F036FA0023FB7108E0F9790123002210
:10059C00412000F081FAFB790133FB71FB79012BCF
:1005AC00F3D90223FB7108E0F979002301224120E1
:1005BC0000F072FAFB790133FB71FB79042BF3D950
:1005CC0000F01EFB364B00221A70364B00221A70BC
:1005DC00354B00221A70344B00225A70324B0022D9
:1005EC009A70314B0022DA702F4B00221A712E4B6D
:1005FC0000225A712C4B00229A712C4B01221A703A
:10060C002B4B01221A702B4B01221A702A4B012200
:10061C001A7000F055F8224B1B781946214B1B78A9
:10062C001846264A0B465B000B44134403441B78C4
:10063C00BB71BB79022B23D0022B29DC002B02D0FF
:10064C00012B08D024E000F079F90346002B21D0CF
:10065C0000F006F91EE000F013FB0346002B04D15A
:10066C0000F06CF90346002B02D000F015F913E0F2
:10067C0000F08AF90346002B0ED000F029F90BE0AC
:10068C0000F082F90346002B08D000F03BF905E09E
:10069C0000BFBEE700BFBCE700BFBAE700BFB8E7CA
:1006AC00290000202A000020300000202B00002010
:1006BC002C0000202D0000202E0000200C0000201B
:1006CC0080B582B000AF00F0F3FA7860634B1B7911
:1006DC00002B0CD1614B1B78002B08D0012204217C
:1006EC00412000F03BFA5D4B01221A7143E05B4B59
:1006FC005B78002B2FD0594B1B79002B13D1574B08
:10070C005B781A464FF47A7302FB03F31A467B6844
:10071C00934208D801220421412000F01FFA4F4BCC
:10072C0001221A7127E04D4B1B79002B23D04B4B28
:10073C005B781A464FF47A7302FB03F31A467B6814
:10074C00934218D900220421412000F007FA434BB0
:10075C0000221A710FE0414B1B79002B0BD03F4B41
:10076C001B78002B07D100220421412000F0F6F960
:10077C003A4B00221A71394B9B78002B38D07B688E
:10078C00B3F5FA7F10D97B68B3F57A7F0ED9334B6A
:10079C009B78013B4FF47A7202FB03F303F5FA7377
:1007AC001A467B68934201D8012300E00023FB70BA
:1007BC002A4B5B79002B0BD1FB78002B08D0012244
:1007CC000321412000F0CAF9244B01225A711FE089
:1007DC00224B5B79002B1BD0FB78002B18D100220D
:1007EC000321412000F0BAF91C4B00225A710FE092
:1007FC001A4B5B79002B0BD0184B9B78002B07D135
:10080C0000220321412000F0A9F9144B00225A7157
:10081C00124B9B79002B0CD1104BDB78002B08D0A2
:10082C0001220221412000F099F90C4B01229A710E
:10083C000FE00A4B9B79002B0BD0084BDB78002B7D
:10084C0007D100220221412000F088F9034B00223D
:10085C009A7100BF0837BD4680BD00BF3000002034
:10086C0080B500AF0A4B00221A70094B02225A7055
:10087C00074B01229A70064B0122DA7042F210707B
:10088C0000F0D2F9034B01221A7000BF80BD00BFEB
:10089C00300000202900002080B500AF0A4B002258
:1008AC001A70094B00225A70074B02229A70064BA1
:1008BC000022DA704FF4FA6000F0B6F9034B002214
:1008CC001A7000BF80BD00BF30000020290000203E
:1008DC0080B400AF094B01221A70084B00225A70E9
:1008EC00064B00229A70054B0022DA70044B012251
:1008FC001A7000BFBD4680BC704700BF300000209E
:10090C002A00002080B500AF0A4B00221A70094B58
:10091C0001225A70074B00229A70064B0022DA70A3
:10092C0042F2107000F080F9034B00221A7000BFE5
:10093C0080BD00BF300000202A00002080B582B0AE
:10094C0000AF0023FB710021412000F033F9034676
:10095C001A460B4B1A700A4B1A780A4B1B789A42A0
:10096C0009D0074B1B78002B01D10123FB71044BE1
:10097C001A78044B1A70FB7918460837BD4680BDAF
:10098C002B0000202C00002080B582B000AF00238B
:10099C00FB710121412000F00DF903461A460B4B67
:1009AC001A700A4B1A780A4B1B789A4209D0074BDB
:1009BC001B78002B01D10123FB71044B1A78044BDB
:1009CC001A70FB7918460837BD4680BD2D000020F3
:1009DC002E00002080B400AF044B1B68034A43F088
:1009EC000103136000BFBD4680BC70470038024055
:1009FC0080B485B000AF0346FB71FB795B09FB73D8
:100A0C00FB7903F01F03BB73FB7B032B36D801A2CE
:100A1C0052F823F0310A0008470A00085D0A000862
:100A2C00730A0008184B1B68BA7B012101FA02F209
:100A3C001146154A0B43136021E0144B1B68BA7B1B
:100A4C00012101FA02F21146104A0B43136016E021
:100A5C000F4B1B68BA7B012101FA02F211460C4ABA
:100A6C000B4313600BE00B4B1B68BA7B012101FAA3
:100A7C0002F21146074A0B43136000E000BF00BFAF
:100A8C001437BD4680BC70473038024034380240C1
:100A9C00403802404438024090B486B000AF04465F
:100AAC00084611461A462346FB710346BB710B469A
:100ABC007B7113463B71FB79413BFB75FB7D264AF1
:100ACC0052F823303B613B7903F00103FB733B7914
:100ADC005B08BB733B691B68BA795200032101FAAE
:100AEC0002F2D2431A403B691A603B691B68797960
:100AFC00BA79520001FA02F21A433B691A603B6957
:100B0C005B68BA79012101FA02F2D2431A403B69BF
:100B1C005A603B695B68F97BBA7901FA02F21A43B5
:100B2C003B695A603B69DB68BA795200032101FAD0
:100B3C0002F2D2431A403B69DA603B69DB68B97B4D
:100B4C00BA79520001FA02F21A433B69DA6000BF2B
:100B5C001837BD4690BC70471800002080B485B093
:100B6C0000AF0346FB710B46BB7113467B71FB79DF
:100B7C00413BFB73FB7B0E4A52F82330BB60BB68D6
:100B8C005B69BA79012101FA02F2D2431A40BB68BF
:100B9C005A61BB685B697979BA7901FA02F21A4336
:100BAC00BB685A6100BF1437BD4680BC704700BF9C
:100BBC001800002080B485B000AF03460A46FB71D4
:100BCC001346BB710023FB73FB79413BBB73BB7BAF
:100BDC000A4A52F82330BB60BB681B69BA79012101
:100BEC0001FA02F21A40BB7922FA03F3FB73FB7B86
:100BFC0018461437BD4680BC704700BF1800002053
:100C0C0080B500AF4020FFF7F3FE4FF0804341F278
:100C1C005B229A624FF080435B694FF0804243F055
:100C2C000103536100BF80BD80B483B000AF786016
:100C3C00124B1B78002B02D1104B01221A704FF073
:100C4C0080431B684FF0804243F0010313604FF068
:100C5C0080431B694FF0804223F0010313614FF076
:100C6C00804300225A624FF080427B68013BD36282
:100C7C0000BF0C37BD4680BC704700BF370000205A
:100C8C0080B400AF4FF080431B6903F00103002BCD
:100C9C0009D04FF080431B694FF0804223F00103D1
:100CAC001361012300E000231846BD4680BC704749
:100CBC0080B400AF0B4B1B78002B01D100230CE050
:100CCC004FF080431B6903F00103002B02D04FF05F
:100CDC00FF3302E04FF080435B6A1846BD4680BC90
:100CEC00704700BF3700002000000000000000002B
:080CFC000102030406070809C8
:100D040028000020000000000024F4000005000179
:100D14000200000000FFFFFF000002400004024048
:080D240000080240000C02402F
:040000050800019559
:00000001FF
